{
  "_format": "hh-sol-artifact-1",
  "contractName": "BuyMeACoffee",
  "sourceName": "contracts/BuyMeACoffee.sol",
  "abi": [
    {
      "inputs": [],
      "stateMutability": "nonpayable",
      "type": "constructor"
    },
    {
      "anonymous": false,
      "inputs": [
        {
          "indexed": true,
          "internalType": "address",
          "name": "from",
          "type": "address"
        },
        {
          "indexed": false,
          "internalType": "uint256",
          "name": "timestamp",
          "type": "uint256"
        },
        {
          "indexed": false,
          "internalType": "string",
          "name": "name",
          "type": "string"
        },
        {
          "indexed": false,
          "internalType": "string",
          "name": "message",
          "type": "string"
        }
      ],
      "name": "newCoffee",
      "type": "event"
    },
    {
      "inputs": [
        {
          "internalType": "string",
          "name": "_name",
          "type": "string"
        },
        {
          "internalType": "string",
          "name": "_message",
          "type": "string"
        }
      ],
      "name": "buyCoffee",
      "outputs": [],
      "stateMutability": "payable",
      "type": "function"
    },
    {
      "inputs": [],
      "name": "listAllCoffees",
      "outputs": [
        {
          "components": [
            {
              "internalType": "address",
              "name": "from",
              "type": "address"
            },
            {
              "internalType": "uint256",
              "name": "timestamp",
              "type": "uint256"
            },
            {
              "internalType": "string",
              "name": "name",
              "type": "string"
            },
            {
              "internalType": "string",
              "name": "message",
              "type": "string"
            }
          ],
          "internalType": "struct BuyMeACoffee.Coffee[]",
          "name": "",
          "type": "tuple[]"
        }
      ],
      "stateMutability": "view",
      "type": "function"
    },
    {
      "inputs": [],
      "name": "withdrawTips",
      "outputs": [],
      "stateMutability": "nonpayable",
      "type": "function"
    }
  ],
  "bytecode": "0x608060405234801561001057600080fd5b50336000806101000a81548173ffffffffffffffffffffffffffffffffffffffff021916908373ffffffffffffffffffffffffffffffffffffffff160217905550610db3806100606000396000f3fe6080604052600436106100345760003560e01c80631b53da6114610039578063204206e1146100645780633aaa74b214610080575b600080fd5b34801561004557600080fd5b5061004e610097565b60405161005b91906106da565b60405180910390f35b61007e60048036038101906100799190610845565b61027a565b005b34801561008c57600080fd5b506100956103f4565b005b60606001805480602002602001604051908101604052809291908181526020016000905b8282101561027157838290600052602060002090600402016040518060800160405290816000820160009054906101000a900473ffffffffffffffffffffffffffffffffffffffff1673ffffffffffffffffffffffffffffffffffffffff1673ffffffffffffffffffffffffffffffffffffffff1681526020016001820154815260200160028201805461014e906108ec565b80601f016020809104026020016040519081016040528092919081815260200182805461017a906108ec565b80156101c75780601f1061019c576101008083540402835291602001916101c7565b820191906000526020600020905b8154815290600101906020018083116101aa57829003601f168201915b505050505081526020016003820180546101e0906108ec565b80601f016020809104026020016040519081016040528092919081815260200182805461020c906108ec565b80156102595780601f1061022e57610100808354040283529160200191610259565b820191906000526020600020905b81548152906001019060200180831161023c57829003601f168201915b505050505081525050815260200190600101906100bb565b50505050905090565b600034116102bd576040517f08c379a00000000000000000000000000000000000000000000000000000000081526004016102b4906109a0565b60405180910390fd5b600160405180608001604052803373ffffffffffffffffffffffffffffffffffffffff16815260200142815260200184815260200183815250908060018154018082558091505060019003906000526020600020906004020160009091909190915060008201518160000160006101000a81548173ffffffffffffffffffffffffffffffffffffffff021916908373ffffffffffffffffffffffffffffffffffffffff1602179055506020820151816001015560408201518160020190816103859190610b6c565b50606082015181600301908161039b9190610b6c565b5050503373ffffffffffffffffffffffffffffffffffffffff167fc7dd661cf46cbcbf112aac98bd108535faca4fd4fdf8c21b0cd6e7970f0842af4284846040516103e893929190610c86565b60405180910390a25050565b60008060009054906101000a900473ffffffffffffffffffffffffffffffffffffffff1673ffffffffffffffffffffffffffffffffffffffff164760405161043b90610cfc565b60006040518083038185875af1925050503d8060008114610478576040519150601f19603f3d011682016040523d82523d6000602084013e61047d565b606091505b50509050806104c1576040517f08c379a00000000000000000000000000000000000000000000000000000000081526004016104b890610d5d565b60405180910390fd5b50565b600081519050919050565b600082825260208201905092915050565b6000819050602082019050919050565b600073ffffffffffffffffffffffffffffffffffffffff82169050919050565b600061051b826104f0565b9050919050565b61052b81610510565b82525050565b6000819050919050565b61054481610531565b82525050565b600081519050919050565b600082825260208201905092915050565b60005b83811015610584578082015181840152602081019050610569565b60008484015250505050565b6000601f19601f8301169050919050565b60006105ac8261054a565b6105b68185610555565b93506105c6818560208601610566565b6105cf81610590565b840191505092915050565b60006080830160008301516105f26000860182610522565b506020830151610605602086018261053b565b506040830151848203604086015261061d82826105a1565b9150506060830151848203606086015261063782826105a1565b9150508091505092915050565b600061065083836105da565b905092915050565b6000602082019050919050565b6000610670826104c4565b61067a81856104cf565b93508360208202850161068c856104e0565b8060005b858110156106c857848403895281516106a98582610644565b94506106b483610658565b925060208a01995050600181019050610690565b50829750879550505050505092915050565b600060208201905081810360008301526106f48184610665565b905092915050565b6000604051905090565b600080fd5b600080fd5b600080fd5b600080fd5b7f4e487b7100000000000000000000000000000000000000000000000000000000600052604160045260246000fd5b61075282610590565b810181811067ffffffffffffffff821117156107715761077061071a565b5b80604052505050565b60006107846106fc565b90506107908282610749565b919050565b600067ffffffffffffffff8211156107b0576107af61071a565b5b6107b982610590565b9050602081019050919050565b82818337600083830152505050565b60006107e86107e384610795565b61077a565b90508281526020810184848401111561080457610803610715565b5b61080f8482856107c6565b509392505050565b600082601f83011261082c5761082b610710565b5b813561083c8482602086016107d5565b91505092915050565b6000806040838503121561085c5761085b610706565b5b600083013567ffffffffffffffff81111561087a5761087961070b565b5b61088685828601610817565b925050602083013567ffffffffffffffff8111156108a7576108a661070b565b5b6108b385828601610817565b9150509250929050565b7f4e487b7100000000000000000000000000000000000000000000000000000000600052602260045260246000fd5b6000600282049050600182168061090457607f821691505b602082108103610917576109166108bd565b5b50919050565b600082825260208201905092915050565b7f4861766520746f2073656e6420736f6d652065746865727320746f206275792060008201527f6d65206120636f66666565000000000000000000000000000000000000000000602082015250565b600061098a602b8361091d565b91506109958261092e565b604082019050919050565b600060208201905081810360008301526109b98161097d565b9050919050565b60008190508160005260206000209050919050565b60006020601f8301049050919050565b600082821b905092915050565b600060088302610a227fffffffffffffffffffffffffffffffffffffffffffffffffffffffffffffffff826109e5565b610a2c86836109e5565b95508019841693508086168417925050509392505050565b6000819050919050565b6000610a69610a64610a5f84610531565b610a44565b610531565b9050919050565b6000819050919050565b610a8383610a4e565b610a97610a8f82610a70565b8484546109f2565b825550505050565b600090565b610aac610a9f565b610ab7818484610a7a565b505050565b5b81811015610adb57610ad0600082610aa4565b600181019050610abd565b5050565b601f821115610b2057610af1816109c0565b610afa846109d5565b81016020851015610b09578190505b610b1d610b15856109d5565b830182610abc565b50505b505050565b600082821c905092915050565b6000610b4360001984600802610b25565b1980831691505092915050565b6000610b5c8383610b32565b9150826002028217905092915050565b610b758261054a565b67ffffffffffffffff811115610b8e57610b8d61071a565b5b610b9882546108ec565b610ba3828285610adf565b600060209050601f831160018114610bd65760008415610bc4578287015190505b610bce8582610b50565b865550610c36565b601f198416610be4866109c0565b60005b82811015610c0c57848901518255600182019150602085019450602081019050610be7565b86831015610c295784890151610c25601f891682610b32565b8355505b6001600288020188555050505b505050505050565b610c4781610531565b82525050565b6000610c588261054a565b610c62818561091d565b9350610c72818560208601610566565b610c7b81610590565b840191505092915050565b6000606082019050610c9b6000830186610c3e565b8181036020830152610cad8185610c4d565b90508181036040830152610cc18184610c4d565b9050949350505050565b600081905092915050565b50565b6000610ce6600083610ccb565b9150610cf182610cd6565b600082019050919050565b6000610d0782610cd9565b9150819050919050565b7f4572726f722073656e64696e6720746865207469707300000000000000000000600082015250565b6000610d4760168361091d565b9150610d5282610d11565b602082019050919050565b60006020820190508181036000830152610d7681610d3a565b905091905056fea2646970667358221220ae5d55f3baca7797283144cfc10cf3c076926dde9e8752bbaab91e9697e2da3e64736f6c63430008110033",
  "linkReferences": {},
  "deployedLinkReferences": {}
}